{
  "contractName": "myPrize",
  "abi": [
    {
      "constant": false,
      "inputs": [],
      "name": "MyPrize",
      "outputs": [],
      "payable": false,
      "stateMutability": "nonpayable",
      "type": "function"
    },
    {
      "constant": false,
      "inputs": [
        {
          "name": "prizeId",
          "type": "uint256"
        },
        {
          "name": "geohash",
          "type": "bytes10"
        },
        {
          "name": "_metadata",
          "type": "string"
        }
      ],
      "name": "placePrize",
      "outputs": [],
      "payable": false,
      "stateMutability": "nonpayable",
      "type": "function"
    },
    {
      "constant": false,
      "inputs": [
        {
          "name": "prizeId",
          "type": "uint256"
        },
        {
          "name": "geohash",
          "type": "bytes10"
        }
      ],
      "name": "claimPrize",
      "outputs": [],
      "payable": false,
      "stateMutability": "nonpayable",
      "type": "function"
    },
    {
      "constant": true,
      "inputs": [
        {
          "name": "",
          "type": "uint256"
        }
      ],
      "name": "prizes",
      "outputs": [
        {
          "name": "id",
          "type": "uint256"
        },
        {
          "name": "owner",
          "type": "address"
        },
        {
          "name": "geohash",
          "type": "bytes10"
        },
        {
          "name": "metadata",
          "type": "string"
        },
        {
          "name": "placedAt",
          "type": "uint256"
        }
      ],
      "payable": false,
      "stateMutability": "view",
      "type": "function"
    }
  ],
  "bytecode": "0x6060604052341561000f57600080fd5b61098e8061001e6000396000f300606060405260043610610062576000357c0100000000000000000000000000000000000000000000000000000000900463ffffffff168063491a9a5c14610067578063895c21d11461007c578063b6a44fd214610104578063eccb3a4f14610149575b600080fd5b341561007257600080fd5b61007a61027c565b005b341561008757600080fd5b610102600480803590602001909190803575ffffffffffffffffffffffffffffffffffffffffffff191690602001909190803590602001908201803590602001908080601f016020809104026020016040519081016040528093929190818152602001838380828437820191505050505050919050506103df565b005b341561010f57600080fd5b610147600480803590602001909190803575ffffffffffffffffffffffffffffffffffffffffffff19169060200190919050506105ad565b005b341561015457600080fd5b61016a600480803590602001909190505061074c565b604051808681526020018573ffffffffffffffffffffffffffffffffffffffff1673ffffffffffffffffffffffffffffffffffffffff1681526020018475ffffffffffffffffffffffffffffffffffffffffffff191675ffffffffffffffffffffffffffffffffffffffffffff19168152602001806020018381526020018281038252848181546001816001161561010002031660029004815260200191508054600181600116156101000203166002900480156102695780601f1061023e57610100808354040283529160200191610269565b820191906000526020600020905b81548152906001019060200180831161024c57829003601f168201915b5050965050505050505060405180910390f35b60006102866107c4565b600191505b600a8210156103db5760a0604051908101604052808381526020013373ffffffffffffffffffffffffffffffffffffffff168152602001600075ffffffffffffffffffffffffffffffffffffffffffff191681526020016020604051908101604052806000815250815260200160008152509050806000808481526020019081526020016000206000820151816000015560208201518160010160006101000a81548173ffffffffffffffffffffffffffffffffffffffff021916908373ffffffffffffffffffffffffffffffffffffffff16021790555060408201518160010160146101000a81548169ffffffffffffffffffff02191690837601000000000000000000000000000000000000000000009004021790555060608201518160020190805190602001906103c0929190610829565b5060808201518160030155905050818060010192505061028b565b5050565b60008060008581526020019081526020016000209050600081600001541415151561040957600080fd5b600075ffffffffffffffffffffffffffffffffffffffffffff19168375ffffffffffffffffffffffffffffffffffffffffffff19161415151561044b57600080fd5b600073ffffffffffffffffffffffffffffffffffffffff168160010160009054906101000a900473ffffffffffffffffffffffffffffffffffffffff1673ffffffffffffffffffffffffffffffffffffffff1614806104f957508060010160009054906101000a900473ffffffffffffffffffffffffffffffffffffffff1673ffffffffffffffffffffffffffffffffffffffff163373ffffffffffffffffffffffffffffffffffffffff16145b151561050457600080fd5b60008160010160006101000a81548173ffffffffffffffffffffffffffffffffffffffff021916908373ffffffffffffffffffffffffffffffffffffffff160217905550828160010160146101000a81548169ffffffffffffffffffff0219169083760100000000000000000000000000000000000000000000900402179055508181600201908051906020019061059d9291906108a9565b5043816003018190555050505050565b6000806000848152602001908152602001600020905060008160000154141515156105d757600080fd5b600075ffffffffffffffffffffffffffffffffffffffffffff19168275ffffffffffffffffffffffffffffffffffffffffffff19161415801561067257508175ffffffffffffffffffffffffffffffffffffffffffff19168160010160149054906101000a90047601000000000000000000000000000000000000000000000275ffffffffffffffffffffffffffffffffffffffffffff1916145b151561067d57600080fd5b6103e88160030154430311151561069357600080fd5b338160010160006101000a81548173ffffffffffffffffffffffffffffffffffffffff021916908373ffffffffffffffffffffffffffffffffffffffff16021790555060008160010160146101000a81548169ffffffffffffffffffff021916908376010000000000000000000000000000000000000000000090040217905550602060405190810160405280600081525081600201908051906020019061073c9291906108a9565b5060008160030181905550505050565b60006020528060005260406000206000915090508060000154908060010160009054906101000a900473ffffffffffffffffffffffffffffffffffffffff16908060010160149054906101000a9004760100000000000000000000000000000000000000000000029080600201908060030154905085565b60a06040519081016040528060008152602001600073ffffffffffffffffffffffffffffffffffffffff168152602001600075ffffffffffffffffffffffffffffffffffffffffffff1916815260200161081c610929565b8152602001600081525090565b828054600181600116156101000203166002900490600052602060002090601f016020900481019282601f1061086a57805160ff1916838001178555610898565b82800160010185558215610898579182015b8281111561089757825182559160200191906001019061087c565b5b5090506108a5919061093d565b5090565b828054600181600116156101000203166002900490600052602060002090601f016020900481019282601f106108ea57805160ff1916838001178555610918565b82800160010185558215610918579182015b828111156109175782518255916020019190600101906108fc565b5b509050610925919061093d565b5090565b602060405190810160405280600081525090565b61095f91905b8082111561095b576000816000905550600101610943565b5090565b905600a165627a7a72305820f3b0ee8ef83a75068fd3c67021d69ef955dbbd368d2d039d67ed1db6d8ae052d0029",
  "source": "pragma solidity ^0.4.18;\r\n\r\ncontract myPrize {\r\n    struct Prize {\r\n        uint id;\r\n        address owner;\r\n        bytes10 geohash;\r\n        string metadata;\r\n        uint placedAt;\r\n    }\r\n\r\n    mapping (uint => Prize) public prizes;\r\n\r\n    //constructor\r\n    function MyPrize() public {\r\n        for (uint i=1; i < 10; i++) {\r\n            Prize memory prize = Prize({id: i, owner: msg.sender, geohash: \"\", metadata: \"\", placedAt: 0});\r\n            prizes[i] = prize;\r\n        }\r\n    }\r\n\r\n    function placePrize (uint prizeId, bytes10 geohash, string _metadata) public {\r\n        var prize = prizes[prizeId];\r\n        require (prize.id != 0);\r\n        require (geohash != bytes10(\"\"));\r\n        require (prize.owner == address(0) || msg.sender == prize.owner);\r\n        prize.owner = address(0);\r\n        prize.geohash = geohash;\r\n        prize.metadata = _metadata;\r\n        prize.placedAt = block.number;\r\n    }\r\n\r\n    function claimPrize (uint prizeId, bytes10 geohash) public {\r\n        var prize = prizes[prizeId];\r\n        require (prize.id != 0);\r\n        require (geohash != bytes10(\"\") && prize.geohash == geohash);\r\n        require (block.number - prize.placedAt > 1000);\r\n        prize.owner = msg.sender;\r\n        prize.geohash = \"\";\r\n        prize.metadata = \"\";\r\n        prize.placedAt = 0;\r\n    }\r\n}",
  "sourcePath": "C:\\Users\\apaz9\\Documents\\Projects\\sol\\solidity-learnings\\contracts\\MyPrize.sol",
  "compiler": {
    "name": "solc",
    "version": "0.4.18+commit.9cf6e910.Emscripten.clang"
  },
  "schemaVersion": "1.0.1",
  "updatedAt": "2018-01-19T02:08:57.152Z"
}